:020000040800F2
:1000000060040020450100086D1400086F1400080A
:1000100073140008771400087B1400080000000027
:100020000000000000000000000000007F14000835
:1000300081140008000000008314000885140008E3
:100040005F0100085F0100085F0100085F01000810
:100050005F0100085F0100085F0100085F01000800
:100060005F0100085F0100085F0100085F010008F0
:100070005F0100085F0100085F0100085F010008E0
:100080005F0100085F0100085F0100085F010008D0
:100090005F0100085F0100085F0100085F010008C0
:1000A0005F0100085F0100085F0100085F010008B0
:1000B0005F0100085F0100085F0100085F010008A0
:1000C0005F0100085F0100085F0100085F01000890
:1000D0005F0100085F0100085F0100085F01000880
:1000E0005F0100085F0100085F0100085F01000870
:1000F0005F0100085F0100085F0100085F01000860
:100100005F0100085F0100085F0100085F0100084F
:100110005F0100085F0100085F0100085F0100083F
:100120005F0100085F0100085F0100085F0100082F
:10013000DFF80CD001F0BAFF004800475713000861
:10014000600400200648804706480047FEE7FEE7B7
:10015000FEE7FEE7FEE7FEE7FEE7FEE7FEE7FEE777
:1001600047020008310100080CB500200190009002
:100170006C48006840F480306A49086000BF6948F4
:10018000006800F4003000900198401C0190009835
:1001900018B90198B0F5A06FF1D16248006800F479
:1001A000003010B10120009001E000200090009884
:1001B000012843D15C48006840F010005A490860AB
:1001C0000846006820F0030008600846006840F018
:1001D0000200086053484068524948600846406839
:1001E00048600846406840F48060486008464068BF
:1001F00020F47C1048600846406840F4E8104860ED
:100200000846006840F08070086000BF45480068FC
:1002100000F000700028F9D04248406820F0030048
:10022000404948600846406840F00200486000BF0E
:100230003C48406800F00C000828F9D10CBD10B50E
:10024000FFF792FF10BD10B53648006840F001007E
:1002500034490860084640683449084031494860DC
:1002600008460068324908402E4908600846006880
:1002700020F4802008600846406820F4FE004860B2
:100280004FF41F008860FFF7DAFF4FF00060294944
:10029000086010BD10B5002100200022214B5B68D2
:1002A00003F00C0121B1042906D0082928D107E068
:1002B000214B224C236027E01F4B204C236023E07E
:1002C000184B5B6803F47010164B5B6803F48032C4
:1002D000022303EB904022B9194B4343174C236090
:1002E0000DE0104B5B6803F4003323B1144B434320
:1002F000124C236003E0104B4343104C236003E097
:100300000D4B0E4C236000BF00BF064B5B68C3F370
:1003100003130C4CE15C094B1B68CB40074C23607A
:1003200010BD000000100240002002400000FFF855
:10033000FFFFF6FE08ED00E000127A00000000204A
:1003400000093D000400002010B50446CC4884425A
:1003500008D10121042000F02FFD0021042000F02D
:100360002BFD46E0C748844208D10121082000F057
:1003700023FD0021082000F01FFD3AE0C24884421E
:1003800008D10121102000F017FD0021102000F0FD
:1003900013FD2EE0BD48844208D10121202000F049
:1003A0000BFD0021202000F007FD22E0B848844228
:1003B00008D10121402000F0FFFC0021402000F086
:1003C000FBFC16E0B348844208D10121802000F0F4
:1003D000F3FC0021802000F0EFFC0AE0AE488442EC
:1003E00007D10121801500F0E7FC0021A01500F0E5
:1003F000E3FC10BD10B50121084600F0DDFC002132
:10040000012000F0D9FC10BD2DE9F0410246002585
:100410000026002000230024002791F803C00CF0E0
:100420000F0591F803C00CF0100CBCF1000F03D0C5
:1004300091F802C04CEA050591F800C0BCF1000F2C
:1004400031D0146800202BE04FF0010C0CFA00F3BF
:10045000B1F800C00CEA03069E4220D183004FF0A1
:100460000F0C0CFA03F7BC4305FA03FC4CEA040436
:1004700091F803C0BCF1280F06D14FF0010C0CFA23
:1004800000FCC2F814C00AE091F803C0BCF1480FA8
:1004900005D14FF0010C0CFA00FCC2F810C0401C52
:1004A0000828D1D31460B1F800C0BCF1FF0F34DDCF
:1004B000546800202EE000F1080C4FF0010808FA03
:1004C0000CF3B1F800C00CEA03069E4221D1830070
:1004D0004FF00F0C0CFA03F7BC4305FA03FC4CEA8F
:1004E000040491F803C0BCF1280F05D100F1080CF9
:1004F00008FA0CF8C2F8148091F803C0BCF1480F58
:1005000007D100F1080C4FF0010808FA0CF8C2F806
:100510001080401C0828CED35460BDE8F0814FF60F
:10052000FF710180022181700421C1707047024671
:10053000002093680B400BB1012000E000207047C1
:100540000146886880B2704702460020D3680B409D
:100550000BB1012000E0002070470146C86880B25E
:10056000704701617047416170470AB1016100E065
:1005700041617047C16070474FF480320A43826125
:100580008161826182698269704702460020434B23
:1005900018684FF68073184040EA021008433F4B3A
:1005A000186070473E49C8617047F0B50A4600239D
:1005B00000240021002500F00046B6F1004F02D1D2
:1005C000364EF16901E0354E7168C0F3034583B2E0
:1005D00000F44016B6F5401F08D121F070612F4E8F
:1005E000766826F070662D4F7E6012E000F480166B
:1005F000B6F5801F06D1032606FA05F4A14341F0A3
:10060000706106E0460D360103FA06F6B14341F08B
:10061000706122B1460D360103FA06F6314300F04F
:100620000046B6F1004F02D11C4EF16101E01B4EB5
:100630007160F0BD30B500228B071C0F0F2303FA49
:1006400004F2164B08338C1053F824309343134CA8
:1006500008348D1044F8253023468C1053F824308C
:100660008C07240F00FA04F423430C4C08348D103B
:1006700044F8253030BD0A49DC310860704700007D
:1006800000080140000C014000100140001401402E
:1006900000180140001C0140002001400000014002
:1006A0000000204210B50446F748844209D10121D8
:1006B000480500F08EFB00214FF4001000F089FB8C
:1006C00008E00121880500F084FB00214FF4800040
:1006D00000F07FFB10BD2DE9F04385B004460D46C8
:1006E0000026B1460427DFF8A483A6884FF6C07021
:1006F0000640684600F0D9FADDF80880E448B8FB07
:10070000F0F01FFA80F946EA0906A68020884FF625
:10071000FE71084020800026DE49286888420CD8F7
:1007200028684000B8FBF0F087B2042F00DA0427F5
:100730003E4309F10100208427E0E8884BF6FF7171
:10074000884206D1286800EB4000B8FBF0F087B281
:1007500009E0286800EBC00101EB0010B8FBF0F0E5
:1007600087B247F48047C7F30B0008B947F0010789
:1007700047F4004006434FF4967009FB00F04FF435
:100780007A7190FBF1F0401C2084A683208840F011
:100790000100208026884FF6F5300640A888698938
:1007A000084306432680A88929890843208105B08B
:1007B000BDE8F08341F288310160002181804BF671
:1007C000FF71C1800021018141814FF4804181810D
:1007D000704721B1028842F00102028004E00288E1
:1007E0004FF6FE731A400280704721B1828842F4AE
:1007F0000062828004E082884FF2FF731A40828098
:10080000704721B1828842F48052828004E082885D
:100810004EF6FF731A408280704721B1028842F47D
:100820008072028004E002884FF6FF631A40028063
:10083000704721B1028842F40072028004E002880D
:100840004FF6FF531A400280704721B1028842F4EC
:100850008062028004E002884FF6FF331A40028073
:1008600070470A46002181894FF60173194002F052
:10087000FE0319438181704721B1828942F0010250
:10088000828104E082894FF6FE731A4082817047AC
:1008900021B1028842F04002028004E002884FF653
:1008A000BF731A40028070471AB183880B4383805C
:1008B00002E083888B438380704701827047014642
:1008C000088AC0B2704712B141F0010102E04FF650
:1008D000FE7319400182704708B50246002000905F
:1008E00000920098084400900098008808BD21B14B
:1008F000028842F40042028003E00288C2F30E0242
:1009000002807047B1F5006F04D1028842F40062A2
:10091000028004E002884FF2FF731A4002807047A1
:10092000B1F5005F04D1028842F40052028004E075
:1009300002884DF6FF731A400280704721B1028889
:1009400042F48052028004E002884EF6FF731A409F
:1009500002807047B1F5006F04D1028842F4006252
:10096000028004E002884FF2FF731A400280704751
:1009700021B1028842F02002028004E002884FF692
:10098000DF731A40028070470146088B00127047DF
:1009900021B1028842F01002028004E002884FF682
:1009A000EF731A400280704721B9028842F080023A
:1009B000028004E002884FF67F731A40028070477D
:1009C000B1F5804F05D0828B4BF6FF731A408283BE
:1009D00003E0828B42F480428283704770B5024606
:1009E0000024002500230020958A138B1B0445EA70
:1009F000030626F07F4404EA01068E4201D101205D
:100A000000E0002070BD10B5014600200023002248
:100A10008B8A0A8B120443EA020424F07F4010BD43
:100A20000CB50246002000230193009300920B0FA7
:100A3000019321F07F41019B1BB1009B1433009374
:100A400003E0090C009B18330093009B1B680B40CC
:100A50000BB1012000E000200CBD002221F07F42FC
:100A6000D3438382704730B5024600200023948828
:100A700001F0E06504EA154321F07F41948A0C40BF
:100A800054B14BB1012008E00054004000127A003C
:100A900040420F00A0860100002030BD002221F05E
:100AA0007F42D34383827047DF48006840F00100F3
:100AB000DD49086008464068DC490840DA4948607A
:100AC00008460068DA490840D749086008460068C7
:100AD00020F4802008600846406820F4FE0048604A
:100AE0004FF41F0088607047CF49096821F48031B6
:100AF000CD4A11601146096821F480211160B0F5DA
:100B0000803F03D0B0F5802F0ED106E0C6490968BA
:100B100041F48031C44A116007E0C349096841F4D7
:100B2000A021C14A116000E000BF00BF704710B5AE
:100B300001460022002300204A11012A02D1BA4CAA
:100B4000236806E0022A02D1B74C236A01E0B64CC2
:100B5000636A01F01F02012494401C400CB1012083
:100B600000E0002010BD38B50020009000240025D2
:100B700000BF3120FFF7DBFF05460098401C0090C6
:100B80000098B0F5A06F01D0002DF2D03120FFF712
:100B9000CEFF08B1012400E00024204638BD014604
:100BA0000020A14A106820F0F80040EAC10010605F
:100BB0007047A04908607047024600209A4B586869
:100BC00020F47C1042EA01031843974B58607047A9
:100BD00098490866704701460020934A506820F003
:100BE00003000843506070478F48406800F00C00D5
:100BF0007047014600208C4A506820F0F0000843FE
:100C00005060704701460020874A506820F4E06039
:100C100008435060704701460020834A506820F422
:100C2000605040EAC1005060704729B17E4A527A54
:100C300002437D4B5A7204E07B4A527A82437A4BDC
:100C40005A7270477B49D8310860704701460020CE
:100C5000754A506820F440400843506070470021B6
:100C6000714A20321170704A82F82010012802D097
:100C700004280AD104E001216B4A2032117005E0FA
:100C80000521694A2032117000E000BF00BF7047A3
:100C90006949086070476449096A0143624A116200
:100CA0007047654944390860704730B5002100221B
:100CB000002400235C4D6D6805F00C0121B104296E
:100CC00005D0082923D105E05C4D056022E05B4D8D
:100CD00005601FE0544D6D6805F47012524D6D684B
:100CE00005F48034022505EB92421CB9544D55435E
:100CF00005600BE04C4D6D6805F400351DB1504D9D
:100D00005543056002E04D4D5543056002E04B4DF3
:100D1000056000BF00BF444D6D6805F0F001090992
:100D2000484D6B5C0568DD4045603F4D6D6805F4DE
:100D3000E061090A434D6B5C4568DD4085603A4DD2
:100D40006D6805F46051C90A3E4D6B5C4568DD4035
:100D5000C560354D6D6805F44041890B3A4D6B5CBB
:100D6000C568B5FBF3F5056130BD29B12E4A52695E
:100D700002432D4B5A6104E02B4A526982432A4BAD
:100D80005A61704729B1284A92690243264B9A61F9
:100D900004E0254A92698243234B9A61704729B146
:100DA000214AD2690243204BDA6104E01E4AD2692B
:100DB00082431D4BDA61704729B11B4AD268024356
:100DC000194BDA6004E0184AD2688243164BDA60A5
:100DD000704729B1144A12690243134B1A6104E0A7
:100DE000114A12698243104B1A6170471249403907
:100DF000086070470F49C86470470B49C871704755
:100E00000948406A40F080700749486270470146CF
:100E10000020054A92680A400AB1012000E0002043
:100E20007047014988727047001002400000FFF8C7
:100E3000FFFFF6FE000042428004424200127A00A8
:100E400000093D00140000202400002010B50446D5
:100E5000FB48844209D101218803FFF7ADFF00213F
:100E60004FF48040FFF7A8FF32E0F648844209D1F2
:100E700001214804FFF7ADFF00214FF40030FFF7D8
:100E8000A8FF25E0F048844209D101218804FFF73A
:100E9000A0FF00214FF48020FFF79BFF18E0EB48F4
:100EA000844209D10121C804FFF793FF00214FF4C8
:100EB0000020FFF78EFF0BE0E548844208D10121B6
:100EC0000805FFF786FF00214FF48010FFF781FF30
:100ED00010BD2DE9F04786B005460E460024A24617
:100EE00000BFA1460027B08900B100BF2F462C8A61
:100EF0004CF6FF700440F08804432C82AC894EF617
:100F0000F3100440B08831890843718908430443D1
:100F1000AC81AC8A4FF6FF400440B0890443AC82F8
:100F200001A8FFF7C2FEC648874202D1DDF810A033
:100F300001E0DDF80CA0A88900F4004040B10AEB04
:100F4000CA0000EB0A1031684900B0FBF1F807E075
:100F50000AEBCA0000EB0A1031688900B0FBF1F817
:100F60006420B8FBF0F004012009642101FB108922
:100F7000A88900F4004040B1322000EBC900B0FB6A
:100F8000F1F000F00700044308E0322000EB091004
:100F90006421B0FBF1F000F00F0004432C8106B097
:100FA000BDE8F0874FF41651016000218180C180B7
:100FB00001810C21418100218181704710B50246D9
:100FC0000020108A4FF2FF0318400B884C882343FF
:100FD0008C882343CC8823431843108210BD002102
:100FE000018041808180C180704721B1828942F4B3
:100FF0000052828104E082894DF6FF731A4082819B
:101000007047F0B50346002400260025002040F676
:101010006A17B94200D100BF1846C1F3421401F06B
:101020001F06012707FA06F5012C01D10C3004E058
:10103000022C01D1103000E014301AB107682F43A0
:10104000076002E00768AF430760F0BD1AB1838A0A
:101050000B43838202E0838A8B4383827047028A38
:101060004FF6F0731A400282028A0A4302827047E6
:1010700082894FF2FF731A40828182890A438281FA
:10108000704721B1828942F00202828104E08289A4
:101090004FF6FD731A4082817047028A4FF6DF7364
:1010A0001A400282028A0A430282704721B1028AF0
:1010B00042F48042028204E0028A4BF6FF731A4037
:1010C00002827047C1F30802828070470146888817
:1010D000C0F308007047818941F0010181817047A8
:1010E000028BD2B20283028B42EA01220283704752
:1010F000028B02F47F420283028B0A430283704711
:1011000021B1828A42F02002828204E0828A4FF674
:10111000DF731A408282704721B1828A42F0100246
:10112000828204E0828A4FF6EF731A40828270470F
:1011300021B1828A42F00802828204E0828A4FF65C
:10114000F7731A408282704721B1828942F40042CB
:10115000828103E08289C2F30E028281704721B14D
:10116000828A42F40062828204E0828A4FF2FF7334
:101170001A4082827047828A4FF6FB731A4082823D
:10118000828A0A438282704721B1828A42F0020237
:10119000828204E0828A4FF6FD731A408282704791
:1011A00002460020B1F5007F00D100BF13880B403C
:1011B0000BB1012000E00020704701F40072B2F58D
:1011C000007F00D100BFCA430280704770B502465D
:1011D000002400230025002040F66A16B14200D109
:1011E00000BFC1F3421501F01F03012606FA03F305
:1011F000012D02D19689334006E0022D02D1168AD4
:10120000334001E0968A33400C12012606FA04F4BA
:101210001688344013B10CB1012000E0002070BDED
:1012200010B50022002340F66A14A14200D100BF8D
:101230000A1201249440A3B2DC43048010BD0000D4
:10124000003801400044004000480040004C00408D
:10125000005000406E480078012805D102206D49F9
:10126000087000206A490870704770B54FF0E020A0
:10127000006920F002004FF0E021086100F043FB1C
:101280004FF0E020006940F002004FF0E0210861DB
:1012900033E04FF0E020006920F002004FF0E02141
:1012A000086106E000F073FB044604F0020000B1A0
:1012B00000E0F7E700BF00F071FB054600F07BFBA4
:1012C000064600F042FB4FF0E020006940F00200CB
:1012D0004FF0E0210861324629464FA000F008FF98
:1012E000052000F0B3FB4A480078012805D103200F
:1012F000484908700020464908704648007802288E
:10130000C7D070BD42480078012805D1022041496C
:10131000087000203E490870704710B541480078B9
:10132000012817D14FF0E020006920F002004FF0B3
:10133000E021086100F0B0FA4FF0E020006940F0D1
:1013400002004FF0E02108610120324908700020BE
:101350003449087010BD00F099F800F0CCFB00F0A3
:10136000A3FC00F03DFB00F030F900202949087093
:10137000052000F06BFB19E02648007810B9FFF754
:10138000CCFF13E023480078012802D1FFF7BAFF11
:101390000CE020480078022802D1FFF766FF05E044
:1013A0001C480078032801D1FFF754FFE4E710B58B
:1013B0000621822000F012F95521832000F00EF959
:1013C000AA21842000F00AF9822000F03FF9164992
:1013D0000870832000F03AF914490870842000F066
:1013E00035F9134908701048007806280BD10F48CA
:1013F0000078552807D108460078AA2803D10DA007
:1014000000F076FE02E012A000F072FE10BD0000B7
:101410002D0000202B0000202425303458253034A6
:10142000582300002C000020280000202900002064
:101430002A000020414435393333207265676973CF
:10144000746572206973204F4B21200D0A00000043
:10145000414435393333207265676973746572208E
:101460006973204E4721200D0A000000704700BF1D
:10147000FEE700BFFEE700BFFEE700BFFEE77047E4
:101480007047704710B500F0F3FA10BD00B585B095
:1014900001218803FFF776FC01210420FFF772FC8D
:1014A0004FF40070ADF8100018208DF813000320E1
:1014B0008DF8120004A92248FEF7A6FF4FF48060C1
:1014C000ADF8100004208DF8130004A91C48FEF7A5
:1014D0009BFF4FF4E13000900020ADF80400ADF820
:1014E0000600ADF80800ADF80C000C20ADF80A00BD
:1014F00069461448FFF7EDFC01211248FFF775FD1E
:1015000005B000BD70B504460D46E1B20D48FFF7C9
:10151000D9FD00BF80210B48FFF742FE0028F9D01B
:10152000204670BD10B5044600BF20210548FFF7D6
:1015300037FE0028F9D00348FFF7C8FD10BD0000B2
:10154000000801400038014008B501214805FFF7B7
:1015500026FC01210820FFF715FC4020ADF8000013
:1015600003208DF802001C208DF8030069467548A1
:10157000FEF74AFF8020ADF8000003208DF802003E
:101580001C208DF8030069466E48FEF73DFF08BD3C
:101590001FB50020ADF804004BF6FF70ADF8060053
:1015A0007C20ADF808004FF48060ADF80A0000011F
:1015B000ADF80C006448009069466448FFF78BF86A
:1015C00001216248FFF705F91FBD10B5FFF7BCFF09
:1015D000FFF7DEFF1A205E49088010BD70B5044693
:1015E0000D4601215948FFF718F900BF59495748DE
:1015F000FFF7F4F90028F9D0554801780022534844
:10160000FFF761F900BF54495048FFF7E7F9002898
:10161000F9D021464D48FFF750F900BF4E49891CCB
:101620004A48FFF7DBF90028F8D029464748FFF77A
:1016300044F900BF4849891C4448FFF7CFF9002806
:10164000F8D001214148FFF7F4F870BD70B50446A9
:10165000002500BF4FF400313C48FFF7E1F90028B6
:10166000F8D101213948FFF7D8F800BF3949374888
:10167000FFF7B4F90028F9D0354801780022334843
:10168000FFF721F900BF34493048FFF7A7F90028D8
:10169000F9D001212D48FFF79CF8B0212B48FFF726
:1016A0000CF900BF2C49891C2848FFF797F900283E
:1016B000F8D021462548FFF700F900BF2649891CCC
:1016C0002248FFF78BF90028F8D001211F48FFF7C7
:1016D000B0F801211D48FFF7A0F800BF1D491B48C5
:1016E000FFF77CF90028F9D0194801780122174842
:1016F000FFF7E9F800BF1749491C1448FFF76EF9D6
:101700000028F8D001211148FFF79FF812E0114995
:101710003F310E48FFF762F960B10C48FFF7CFF890
:10172000054600210948FFF790F801210748FFF717
:1017300080F800E0EBE700BF01210448FFF785F8DF
:10174000284670BD000C0140801A0600005400407D
:101750002E000020010003008200070010B59C4805
:101760000088C0F30B0040F4805099490860084697
:101770000088C0F307218020FFF730FF10BD10B5AF
:10178000934800684FF6EF71084040F01000904910
:101790000860084601788120FFF720FF10BD2DE981
:1017A000F04104460D4616461F46DDF8188044EA0F
:1017B00005003043384340EA080085490860084680
:1017C0000088C0F307218020FFF708FF80480178D8
:1017D0008120FFF703FFBDE8F08138B50446200AF9
:1017E0008DF80000E0B28DF801009DF8001088200F
:1017F000FFF7F4FE9DF801108920FFF7EFFE38BDDA
:101800002DE9F04782460C46504600F067FB07463C
:10181000704A714B00F0D2FA054600F046FB814653
:101820004FEA194020704FEA1920607084F8029046
:10183000BDE8F08738B50446204600F031FB054688
:101840006946FFF7DDFF9DF800108520FFF7C6FE13
:101850009DF801108620FFF7C1FE9DF80210872039
:10186000FFF7BCFE38BD38B50446204600F018FB33
:1018700005466946FFF7C4FF9DF800108220FFF778
:10188000ADFE9DF801108320FFF7A8FE9DF8021021
:101890008420FFF7A3FE38BDF8B55048FFF7E3FFFB
:1018A0000120FFF7C7FF0A20FFF797FF002003463C
:1018B0004FF48072014600904FF43040FFF76FFF05
:1018C000FFF75DFFFFF74AFF002407E0002501E076
:1018D00000266D1CB5F57A7FFADB641CB4F57A7FBF
:1018E000F4DBF8BD10B53A480088C0F30B0040F4B3
:1018F00030403749086008460088C0F3072180203F
:10190000FFF76CFE10BD10B531480088C0F30B0026
:1019100040F400502E49086008460088C0F30721B3
:101920008020FFF75BFE10BD10B529480088C0F38A
:101930000B0040F440502649086008460088C0F378
:1019400007218020FFF74AFE10BD10B5204800880F
:10195000C0F30B0040F480401D4908600846008831
:10196000C0F307218020FFF739FE10BD10B51848DD
:101970000088C0F30B0040F4104015490860084689
:101980000088C0F307218020FFF728FE10BD10B5A6
:101990008F20FFF75BFE0446204610BD70B59420F3
:1019A000FFF754FE04469520FFF750FE054645EA32
:1019B0000426304670BD70B59620FFF747FE0446FA
:1019C0009720FFF743FE054645EA0426304670BDE2
:1019D00030000020B30669014C004040400D030078
:1019E00030B5304800684FF47A72B0FBF2F1B1F1D3
:1019F000807F01D301201DE021F07F40401E4FF089
:101A0000E022506150170F22002807DA13071D0E3D
:101A1000254B00F00F04241F1D5503E013071C0E77
:101A2000224B1C5400BF00204FF0E02290610720A1
:101A30001061002008B100BFFEE74FF0E020006910
:101A400020F001004FF0E021086130BD01B51849D8
:101A5000009808604FF0E020006940F001004FF06E
:101A6000E021086100BF124800680028FBD108BDD2
:101A700010B50F48006820B10D480068401E0C49A1
:101A800008600C48006828B10A480068401E0949EF
:101A9000086006E00A200749086000F0E2F800F05C
:101AA00033F910BD0000002018ED00E000E400E074
:101AB000340000203800002008B501210420FFF781
:101AC00061F90120ADF8000028208DF80300694677
:101AD0007048FEF799FC01211020FFF753F94FF4ED
:101AE0000050ADF8000028208DF8030069466A48D0
:101AF000FEF78AFC08BD10B5FFF7DEFF002067493E
:101B0000087048708870C870002164480171417184
:101B100000206249887100216048C1710172002073
:101B20005E49487200215D488172C17200205B49A4
:101B30000873002159484173817300205749887503
:101B400000215648C175017600205449C87400210F
:101B500052480175417500205049087400214F48D2
:101B6000417481740A204D49C87310BD032800DBFD
:101B700070474A4A921D125C42B9484A921D11545C
:101B80000023D21C1354D21C135441E0012922D14A
:101B9000424A0932125C521CD3B2404A09321354F1
:101BA000125C632A34D100233C4A09321354D21CFC
:101BB000125C521CD3B2394A0C321354125C0A2AFA
:101BC00026D10023354A0C32135401230A32135410
:101BD000921F13541CE0314A921D11540A32125CB8
:101BE00022B901232D4A1332135403E000232B4A58
:101BF00010321354294AD27C294B1A70274A127D7D
:101C0000284B1A700022254BDA740023234A1375DF
:101C100000BFADE701462148405C012805D11F48BF
:101C2000C01C405C012800D170470020FCE710B5C3
:101C30001A4800781949C870084641780171002196
:101C4000417101211348FEF772FC144908704FF4EA
:101C500000511148FEF76BFC104948700020887055
:101C600010BD08B5FFF7E3FF0020FFF7D3FF8DF8A5
:101C700000000120FFF7CEFF8DF801009DF8001055
:101C80000020FFF773FF9DF801100120FFF76EFFA2
:101C900008BD000000080140001001404400002081
:101CA0002C0000202D00002008B501210820FFF79E
:101CB00069F80120ADF8000010208DF80300032022
:101CC0008DF8020069463A48FEF79EFB0220ADF807
:101CD000000069463648FEF797FB2020ADF800006B
:101CE00069463348FEF790FB01213148FEF739FC85
:101CF00002212F48FEF735FC20212D48FEF731FC4C
:101D000005202C49087008BD10B52A480078401EEF
:101D10002849087008460078002848D126480078ED
:101D200060B901212248FEF71CFC02212048FEF781
:101D300018FC20211E48FEF716FC35E01E480078EE
:101D400001280CD101211A48FEF70DFC0221184888
:101D5000FEF707FC20211648FEF703FC24E0164896
:101D60000078022810D101211148FEF7FAFB104833
:101D70000C30006880F002000D490C310860202111
:101D80000B48FEF7EEFB0FE00B48007803280BD161
:101D900001210748FEF7E5FB02210548FEF7E3FBBA
:101DA00020210348FEF7DDFB05200249087010BD25
:101DB000000C01403C0000202B0000202DE9FE4FCC
:101DC00081EA030404F0004421F0004100944FF044
:101DD000000B23F0004350EA01045ED052EA0304F2
:101DE0005BD0C3F30A54C1F30A552C44A4F2F33474
:101DF0000194A0FB0254C1F3130141F48011C3F319
:101E0000130343F4801301FB024400FB034E840AD6
:101E1000970A44EA815447EA8357A4FB076802956E
:101E20008D0A05FB07854FEA932C04FB0C5427050C
:101E3000029D4FEA065847EA1637B5EB08056EEBE8
:101E4000070C870E920E47EA811742EA8312A7FB1E
:101E50000201B6EB0B0164EB00042B0D43EA0C33DB
:101E60005E1844EB1C50DA465146E7FB0201C5F30D
:101E700013044FEA0B3343EA14534FEA0432019C34
:101E800043EA0603A4F10C040294009CCDE900B4DB
:101E900000F0BEF803B0BDE8F08F00200146F9E77E
:101EA00096230022114600F076B8C1F30A5210B50D
:101EB000C1F3130140F2FF3341F480119A4201DA79
:101EC000002010BD40F233439A42A2F2334203DCB9
:101ED000524200F047F810BD904010BD00F00042A3
:101EE00030F000400AD0C10D01F56071C0F316005A
:101EF00042EA0151C20840071143704700200146E1
:101F000070472DE9F05F0546002092469B468846C3
:101F10000646814640241BE0284641464746224665
:101F200000F020F853465A46C01A914110D311468A
:101F30001846224600F0CCF82D1A67EB01084F46F0
:101F400022460120002100F0C3F817EB00094E41A2
:101F5000201EA4F10104DFDC484631462A464346F0
:101F6000BDE8F09F202A04DB203A21FA02F000218C
:101F7000704721FA02F3D040C2F120029140084399
:101F8000194670470029A8BF7047401C490008BF88
:101F900020F00100704710B4B0FA80FC00FA0CF099
:101FA00050EA010404BF10BC704749B1CCF12004D1
:101FB00021FA04F411FA0CF118BF0121214308435E
:101FC000A3EB0C01CB1D4FEA00614FEA102042BF8A
:101FD000002010BC704700EBC35010440029A4BF80
:101FE00010BC7047401C490008BF20F0010010BC25
:101FF000704710B5141E73F1000408DA401C41F15B
:10200000000192185B411A4301D120F0010010BD7C
:102010002DE9F04D92469B4611B1B1FA81F202E0F2
:10202000B0FA80F22032904600F052F804460F4693
:1020300040EA0A0041EA0B0153465A46084313D0CE
:10204000114653EA010019D0C8F140025046FFF78B
:1020500089FF05460E4650465946424600F038F87C
:10206000084305D0012004E020463946BDE8F08D44
:102070000020054346EAE0762C4337430A9863057F
:10208000E40AA0EB08000022FD0A44EA47540A30A3
:1020900002D500200146E9E7010510196941DDE993
:1020A000084500196941BDE8F04DA2E7064C074D0F
:1020B00006E0E06840F0010394E807009847103418
:1020C000AC42F6D3FEF738F894250008B425000892
:1020D000202A04DB203A00FA02F1002070479140E8
:1020E000C2F1200320FA03F3194390407047000027
:1020F0000FB4054B10B503A9044A029800F018F874
:1021000010BC5DF814FB000005150008400000201D
:1021100002E008C8121F08C1002AFAD170477047B0
:10212000002001E001C1121F002AFBD1704700000E
:102130002DE9FF4F8DB00F460546002606E0252805
:102140000BD0DDE90F1290476D1C761C2878002813
:10215000F5D111B03046BDE8F08F0024A246A1466B
:102160000122EC4900E0044315F8013F203B02FA4C
:1021700003F00842F7D128782A2810D06FF02F02F8
:102180002878A0F13001092914D80AEB8A0102EB62
:10219000410144F0020400EB010A6D1CF0E701CF9D
:1021A0005FEA000A03D544F40054CAF1000A44F07F
:1021B00002046D1C28782E2817D115F8010F44F061
:1021C00004042A280ED06FF02F022878A0F13001E5
:1021D00009290AD809EB890102EB410100EB010949
:1021E0006D1CF2E757F8049B6D1C28786C280FD003
:1021F00006DC4C2817D068280DD06A2814D104E0DA
:10220000742810D07A280FD10DE044F400140AE0AD
:1022100044F4801401E044F440146978814202D10E
:1022200004F580146D1C6D1C2A786E2A1FD00CDCFE
:10223000632A31D004DC002A8BD0582A11D1A3E0C4
:10224000642A68D0692A0CD165E0732A2ED004DC98
:102250006F2A73D0702A04D19BE0752A6FD0782A38
:102260006ED01046DDE90F129047761C50E1C4F3A2
:102270000250022806D0032809D0042801CF09D033
:10228000066045E101CFF117C0E9006140E101CFEF
:1022900006803DE106703BE117F8040B8DF8000065
:1022A00000208DF80100EB46012003E057F804BB45
:1022B0004FF0FF3061074FF0000102D40DE008F14C
:1022C0000101884649450FDA8045F8DB1BF8081004
:1022D0000029F4D108E008F1010188468142FADBC7
:1022E0001BF808100029F6D1DDE90F23AAEB08003E
:1022F0008146214600F036F9304400EB080604E040
:10230000DDE90F121BF8010B9047B8F10108F7D275
:1023100021464846F7E00A21C4F302534FF0000B70
:102320000891022B04D001CFC117032B09D00AE07A
:10233000FF1D27F00707F7E8020108E032E01FE081
:1023400020E000B2C117042B01D140B2C117031E17
:1023500071F1000307DA4FF0000CD0EB0C006CEBCE
:1023600001012D2302E0230504D52B238DF8243011
:10237000012303E0E30701D02023F7E7984658E064
:102380000A2110E010210EE010204FF0000B089001
:102390000CE010214FF0000B44F004044FF008094A
:1023A000089103E008214FF0000B0891C4F3025399
:1023B000022B04D001CF0021032B06D006E0FF1D25
:1023C00027F00707F7E8020103E080B2042B00D1F1
:1023D000C0B24FF0000823072BD5702A07D0DDF8D4
:1023E00020C08CF0100C5CEA0B0C05D00EE04023F2
:1023F0008DF82430012308E050EA010306D0302391
:102400008DF824308DF8252002239846DDF820C071
:102410008CF0080C5CEA0B0C0BD150EA010301D1E3
:10242000630706D530238DF824304FF00108A9F159
:102430000109582A04D038A20B9208AA0A920BE08C
:102440003AA2F9E75B46089AFFF75BFD0B9B9B5CA2
:102450000A9A521E0A92137050EA0102F2D10A98A7
:10246000ADEB000000F1200B600702D524F48034AE
:1024700001E04FF00109D94502DDA9EB0B0000E0B6
:10248000002000EB0B0141440890AAEB010AE00395
:1024900006D4DDE90F232146504600F063F80644D8
:1024A0004FF0000908E009A911F80900DDE90F1251
:1024B000904709F10109761CC145F4DBE0030CD516
:1024C000DDE90F232146504600F04CF8064404E0B5
:1024D000DDE90F1230209047761C0899481E0890BD
:1024E0000029F5DC08E00A980A990078491C0A914D
:1024F000DDE90F129047761CBBF10001ABF1010B37
:10250000F1DC21465046DDE90F2300F019F80644BE
:102510006D1C1BE609280100303132333435363763
:10252000383961626364656600000000303132331F
:1025300034353637383941424344454600000000BF
:102540002DE9F041044600251E461746880404D4B0
:1025500005E039462020B0476D1C641EF9D5284699
:10256000BDE8F0812DE9F041044600251E46904665
:10257000C80301D5302700E02027880404D505E0F2
:1025800041463846B0476D1C641EF9D52846BDE863
:10259000F0810000B4250008000000204400000085
:1025A00010210008F8250008440000201C04000049
:1025B0002021000800A24A040000000000000000E2
:1025C00001020304060708090000000001020304D9
:1025D00001020304060708090204060800000000BF
:1025E00000000000000000000000000000000000EB
:0825F0000000000000000000E3
:0400000508000131BD
:00000001FF
